:100000000C94CA000C94E7000C9448010C94E7008F
:100010000C94E7000C94E7000C94E7000C94E700C4
:100020000C94E7000C94E7000C94E7000C94E700B4
:100030000C94E7000C94E7000C94E7000C94E700A4
:100040000C946F0F0C94E7000C94E7000C94E700FD
:100050000C94E7000C94E7000C94E7000C94E70084
:100060000C94E7000C94E700FF8181FF00FF000083
:10007000F989898F898989FF0F0808FF8F8989F994
:10008000FF8989F9010101FFFF8989FF0F0909FF34
:100090008F898989F9FF81818181FF818181FFFFBA
:1000A00019294986FF89898981FF414141413E00E3
:1000B000FF000000000000FF00000000FF00FF80C4
:1000C000808080FF00FF818181818100808080802D
:1000D00080FF00FF80808080FF00FF00000000FFA5
:1000E00000010101FF010101000000FF000000FF0D
:1000F00001010101FF00FF80808080FF00010101FC
:10010000FF010101808080FF808080FF01010101EB
:100110000100FF808080808000FF8040300C030061
:10012000FF01020C30C000FF81818181FF00FF00D0
:10013000000000FF00FFC14141413E00FF00030CF1
:1001400030C000FF818181810100FF80808080803C
:1001500000FF0FF00000FF00FF00000FF0FF0004A1
:1001600006070CFC7C1C1C1414040000E0E00000DA
:100170000F08FFFF080FE0C080000080C0C0E0F85B
:10018000FC745C5C180307070FFFBF1F0F1FFF877E
:100190000103000011241FBECFEFD8E0DEBFCDBFAA
:1001A00011E0A0E0B1E0ECEDF4E202C005900D92A8
:1001B000A630B107D9F721E0A6E0B1E001C01D9259
:1001C000A931B207E1F70E9409100C946C120C944B
:1001D0000000681708F0862F089580911701882382
:1001E00019F08F5F8093170180911601882319F011
:1001F0008F5F8093160180911501882319F08F5F1E
:100200008093150180911401882319F08F5F8093EA
:100210001401089580911701811104C08F5F8093AC
:100220001701089580911601811103C08F5F80939B
:100230001601089580911501811104C08F5F80938C
:100240001501089580911401811103C08F5F80937F
:100250001401089516BC85B5856085BDEEE6F0E015
:10026000808181608083089580E005C0E0EAFFE03E
:100270003197F1F78F5F8530C9F7089580E005C0A9
:10028000E0E4FFE13197F1F78F5F8530C9F708951A
:100290001F920F920FB60F9211242F933F934F93FB
:1002A0005F936F937F938F939F93AF93BF93EF93DE
:1002B000FF9380911201882341F088B18B7F88B928
:1002C0000E943E0188B1846088B9FF91EF91BF918F
:1002D000AF919F918F917F916F915F914F913F91DE
:1002E0002F910F900FBE0F901F90189580E4809370
:1002F0007C00EAE7F0E080EA808380818760808389
:1003000010927B00089588E290E00197F1F708953C
:10031000806480937C000E948301EAE7F0E08081A2
:100320008064808380917A0084FFFCCFEAE7F0E06C
:100330008081806180838091780090917900089518
:100340008BB180618BB908958BB18F7E8BB9089585
:100350008BB180688BB90E943E018BB18F778BB9CE
:1003600008958BB180688BB908958BB18F778BB965
:1003700008951092B90088E48093B800089594EA33
:100380009093BC009091BC009923E4F79091B90040
:10039000987F983011F0903191F48093BB0084E8FD
:1003A0008093BC008091BC008823E4F78091B90061
:1003B000887F883131F0803431F480E0089581E025
:1003C000089580E0089581E0089584E98093BC0059
:1003D0008091BC0084FDFCCF08958093BB0084E82D
:1003E0008093BC008091BC008823E4F78091B90021
:1003F000887F883211F081E0089580E00895CF93DE
:10040000C82F88E70E94BF0180E00E94ED018C2F79
:100410000E94ED010E94E501CF910895CF93DF93F3
:10042000C82FD62F8F700E94FF018C2F82958F705E
:10043000805F0E94FF0180EB8D0F0E94FF01DF9122
:10044000CF910895CF93DF93D82FC62F88E70E94CE
:10045000BF0180E00E94ED018D2F0E94ED018C2FE5
:100460000E94ED010E94E501DF91CF910895CF93A5
:10047000C82F88E70E94BF0180E40E94ED018C2F05
:100480000E94ED010E94E501CF91089589E18093DA
:10049000130165E088E00E940E0280E80E943702A6
:1004A00080E80E94370280E00E94370280E00E94CC
:1004B000370280E00E94370280E80E94370280EC19
:1004C0000E94370280EC0E94370280EC0E943702C3
:1004D00080EF0E94370288EF0E94370288EE0E9468
:1004E000370288EB0E94370288EB0E94370280E3D4
:1004F0000E94370266E088E00E940E0283E00E94BC
:10050000370283E00E94370287E00E94370287E0CB
:100510000E9437028FEF0E9437028FEB0E94370252
:100520008FE10E9437028FE00E9437028FE10E9424
:1005300037028FEF0E94370287E80E94370282E07D
:100540000E94370286E00E94370280E00E94370254
:1005500080E00E94370208958AE18093130165E0EC
:1005600088E00E940E0280E00E94370280E00E9434
:10057000370280E00E94370280E00E94370280E06C
:100580000E94370280E00E94370280E80E94370212
:1005900080E80E94370280E80E94370280E80E94CB
:1005A000370280EE0E94370280EF0E94370280ED12
:1005B0000E94370280E70E94370280E70E943702DC
:1005C00080E60E94370266E088E00E940E028FE01B
:1005D0000E9437028FE00E9437028FE00E943702AC
:1005E0008FE00E9437028FEF0E9437028FEB0E944C
:1005F00037028FE10E9437028FE00E9437028FE1BD
:100600000E9437028FEF0E94370287E80E9437026C
:1006100085E00E9437028DE00E94370281E00E944F
:10062000370281E00E94370280E00E94370208957D
:100630008BE18093130165E088E00E940E0280E068
:100640000E94370280E00E94370280E00E94370259
:1006500080E00E94370280E00E94370280E80E941A
:10066000370280E80E94370280E80E94370280E863
:100670000E94370280E00E94370280E00E94370229
:1006800080E80E94370280EC0E94370280E40E94DA
:10069000370280EC0E94370280EC0E94370280E82B
:1006A0000E94370266E088E00E940E028EE10E94FE
:1006B00037028EE10E9437028FE00E9437028FE0FE
:1006C0000E9437028FEF0E9437028FEB0E943702A1
:1006D0008FE10E9437028FE00E9437028FE10E9473
:1006E00037028FEF0E94370287E80E9437028FE1BE
:1006F0000E94370287E10E94370287E00E9437029A
:1007000085E00E94370285E00E94370281E00E9466
:10071000370208958CE18093130166E088E00E941F
:100720000E0288EF0E9437028CE70E9437028CE3AA
:100730000E9437028EE10E9437028FEF0E9437023B
:100740008FEB0E9437028FE10E9437028FE00E94F8
:1007500037028FE10E9437028FEF0E9437028EE846
:100760000E9437028EE30E9437028FE20E94370216
:100770008FE00E9437028DE10E94370287E10E94DC
:10078000370287E10E94370286E00E94370208950F
:10079000CF93DF930E9446020E943E010E94AC026A
:1007A0000E943E010E9418030E943E0165E088E01D
:1007B0000E940E02C0E0D0E004C080E00E94370238
:1007C0002196C231D105CCF30E948A03DF91CF91EB
:1007D00008951F93CF93DF93162F682F88E00E9410
:1007E0000E02C0E0D0E014C0CD30D1054CF4FE01C3
:1007F000EA58FE4F8491869580680E94370207C0B0
:10080000FE01EA58FE4F849186950E943702219698
:10081000CF30D1054CF3612F88E00E940E02C0E07A
:10082000D0E008C0FE01EB57FE4F849186950E94F0
:1008300037022196CF30D105ACF3DF91CF911F91D4
:1008400008951F93CF93DF93162F682F88E00E949F
:100850000E02C0E0D0E026C0CB30D1051CF0CC3079
:10086000D10551F4FE01EA58FE4F84918695869594
:10087000806C0E94370215C0CB30D10551F4FE01C7
:10088000EA58FE4F84918695869580640E943702CF
:1008900008C0FE01EA58FE4F8491869586950E9415
:1008A00037022196CF30D105BCF2612F88E00E943B
:1008B0000E02C0E0D0E009C0FE01EB57FE4F84916C
:1008C000869586950E9437022196CF30D105A4F3F4
:1008D000DF91CF911F9108950F931F93CF93DF93D3
:1008E000062F142F682F88E00E940E02C0E0D0E08F
:1008F00004C080E00E9437022196CA30D105CCF3B3
:10090000C0E0D0E004C080E80E9437022196C430E5
:10091000D105CCF380E00E943702602F88E00E946E
:100920000E028CE70E94370288EF0E94370280EFA8
:100930000E94370280EE0E94370280EE0E9437024A
:1009400080EF0E94370288EF0E94370288EF0E94F2
:1009500037028CEF0E9437028FEF0E9437028FEF31
:100960000E9437028EE20E9437028BE60E94370215
:100970008BE00E94370283E00E943702612F88E0FB
:100980000E940E02C0E0D0E00AC0FE01EB57FE4F0D
:1009900084918695869586950E9437022196CF3060
:1009A000D1059CF3DF91CF911F910F9108950F9383
:1009B0001F93CF93DF93062F142F682F88E00E9498
:1009C0000E02C0E0D0E004C080E00E943702219611
:1009D000C930D105CCF380E80E94370280EC0E9438
:1009E000370280E40E94370280EC0E94370280ECDC
:1009F0000E94370280E80E943702602F88E00E9440
:100A00000E028EE30E9437028CE70E94370288E7CD
:100A10000E94370280EF0E94370280EF0E94370267
:100A200088EF0E9437028CEF0E9437028CEF0E9401
:100A300037028EEF0E9437028FEF0E9437028FE756
:100A40000E94370287E10E94370285E30E94370245
:100A500085E00E94370281E00E943702612F88E022
:100A60000E940E02C0E0D0E009C0FE01EB57FE4F2D
:100A7000849182958F700E9437022196CF30D105E4
:100A8000A4F3DF91CF911F910F9108950F931F93BE
:100A9000CF93DF93062F142F682F88E00E940E0259
:100AA000C0E0D0E004C080E00E9437022196C93047
:100AB000D105CCF380EC0E94370280EE0E94370211
:100AC00080EA0E94370280EE0E94370280EE0E9488
:100AD000370280EC0E943702602F88E00E940E02ED
:100AE0008FE10E9437028EE30E9437028CE30E945E
:100AF000370288E70E94370288EF0E9437028CEFA6
:100B00000E9437028EEF0E9437028EE70E94370262
:100B10008FEF0E9437028FEF0E9437028FE30E940F
:100B200037028BE00E9437028AE10E94370282E09E
:100B30000E94370280E00E943702612F88E00E9405
:100B40000E02C0E0D0E00AC0FE01EB57FE4F8491D8
:100B50008295869587700E9437022196CF30D10505
:100B60009CF3DF91CF911F910F910895CF93DF9365
:100B7000D62FC42F682F88E00E940E0280E80E94C2
:100B8000370280E00E94370280E00E94370280E056
:100B90000E94370280E00E94370280E00E94370204
:100BA00080E00E94370280E00E94370280E80E94C5
:100BB000370280EE0E94370280EF0E94370280EDFC
:100BC0000E94370280E70E94370280E70E943702C6
:100BD00080E60E9437026D2F88E00E940E028FE0AF
:100BE0000E9437028FE10E9437028EE10E94370295
:100BF0008CE30E9437028CEF0E9437028EEF0E9436
:100C000037028FE70E9437028FE30E9437028FE797
:100C10000E9437028FEF0E9437028FE10E94370255
:100C200085E00E9437028DE00E94370281E00E9439
:100C3000370280E00E9437026C2F88E00E940E028B
:100C4000C0E0D0E00BC0FE01EB57FE4F84918295CF
:100C50008695869583700E9437022196CF30D10504
:100C600094F3DF91CF910895CF93DF93D62FC42FC4
:100C7000682F88E00E940E0280EC0E94370280E814
:100C80000E94370280E00E94370280E00E94370213
:100C900080E00E94370280E00E94370280E80E94D4
:100CA000370280E80E94370280EC0E94370280EF12
:100CB0000E94370288EF0E94370288EE0E943702B6
:100CC00088EB0E94370288EB0E94370280E30E9483
:100CD00037026D2F88E00E940E0287E00E943702E3
:100CE0008FE00E9437028FE00E9437028EE10E945F
:100CF00037028EEF0E9437028FE70E9437028FE3A0
:100D00000E9437028FE10E9437028FE30E94370270
:100D10008FEF0E9437028FE00E94370282E00E942C
:100D2000370286E00E94370280E00E94370280E0AE
:100D30000E9437026C2F88E00E940E02C0E0D0E0D3
:100D40000AC0FE01EB57FE4F8491881F8827881F39
:100D50000E9437022196CF30D1059CF3DF91CF91CD
:100D600008950F931F93CF93DF93062F142F682FAF
:100D700088E00E940E02C0E0D0E007C0FE01EA5801
:100D8000FE4F84910E9437022196CF30D105B4F3F3
:100D9000602F88E00E940E02C0E0D0E007C0FE0194
:100DA000EB57FE4F84910E9437022196CF30D10538
:100DB000B4F3612F88E00E940E02C0E0D0E008C0CA
:100DC000FE01EB57FE4FE49180E00E94370221962E
:100DD000CF30D105ACF3DF91CF911F910F910895E2
:100DE000CF93DF93682F82E10E940E02C0E0D0E033
:100DF00004C080E00E9437022196C430D105CCF3B4
:100E0000DF91CF910895CF93DF9365E080E00E945A
:100E10000E02C0E0D0E004C080E00E9437022196BC
:100E2000C830D105CCF366E080E00E940E02C0E03D
:100E3000D0E004C080E00E9437022196C830D1057E
:100E4000CCF3DF91CF910895CF93DF9365E083E7F3
:100E50000E940E02C0E0D0E007C0FE01E15AFE4F42
:100E600084910E9437022196CB30D105B4F3DF91F3
:100E7000CF910895CF93DF9365E089E70E940E023A
:100E8000C0E0D0E007C0FE01E659FE4F84910E9409
:100E900037022196C630D105B4F366E089E70E9497
:100EA0000E02C0E0D0E007C0FE01E059FE4F849181
:100EB0000E9437022196C630D105B4F3DF91CF915D
:100EC0000895809118018F5F80931801803831F563
:100ED0000E94F91181709078992324F401978E6F04
:100EE0009F6F0196BC016F5F7F4F072E000C880B30
:100EF000990B0E94D51020E030E040E85FE30E94AB
:100F00009810811105C00E943A070E940A0104C08E
:100F10000E9424070E941A01109218010895CF938D
:100F2000DF9365E088E00E940E02C0E0D0E007C0D9
:100F3000FE01EA58FE4F84910E9437022196CF307D
:100F4000D105B4F366E088E00E940E02C0E0D0E074
:100F500007C0FE01EB57FE4F84910E943702219695
:100F6000CF30D105B4F3DF91CF91089566E089E1E8
:100F70000E940E0280E00E9437020E9418030E9425
:100F80003E0165E088E10E940E0280E00E94370287
:100F900066E088E10E940E0280E00E9437020E9413
:100FA000AC020E943E0165E087E10E940E0280E0F3
:100FB0000E9437020E9446020E943E0165E086E1DF
:100FC0000E940E0280E00E943702109213010E94DC
:100FD0008F070895CF93DF9367E080E00E940E02B1
:100FE000C0E0D0E019C08EEF0E9437028DEF0E9462
:100FF000370287EF0E9437028FEB0E9437028FEE95
:101000000E9437028BEF0E9437028FE70E9437025F
:101010008FED0E9437022196C031D10524F3DF9174
:10102000CF910895AF92BF92CF92DF92EF92FF924D
:101030000F931F93CF93DF9363E080E40E940E022F
:10104000C0E0D0E007C0FE01E057FF4F84910E944E
:1010500037022196C530D105B4F363E087E40E94DE
:101060000E02C0E0D0E007C0FE01EB56FF4F8491B6
:101070000E9437022196C530D105B4F363E08EE4B7
:101080000E940E02C0E0D0E007C0FE01E656FF4F0E
:1010900084910E9437022196C530D105B4F363E0F4
:1010A00085E50E940E02C0E0D0E007C0FE01E156D7
:1010B000FF4F84910E9437022196C530D105B4F3C9
:1010C00063E08CE50E940E02C0E0D0E007C0FE01A4
:1010D000EC55FF4F84910E9437022196C530D1050F
:1010E000B4F363E083E60E940E0284E20E943702BA
:1010F00060910E0170910F0180911001909111018A
:101100000E949D10CB0168EE73E00E9485115B0187
:1011100064E670E00E9485116B016AE070E00E9455
:1011200085117B01EC0163E086E60E940E0200E07F
:1011300010E00EC0F501EE0FFF1FEE0FFF1FE00FD6
:10114000F11FE859FF4F84910E9437020F5F1F4F34
:10115000043011057CF363E08CE60E940E0200E08F
:1011600010E00EC0F601EE0FFF1FEE0FFF1FE00FA5
:10117000F11FE859FF4F84910E9437020F5F1F4F04
:10118000043011057CF363E082E70E940E0200E068
:1011900010E00EC0F701EE0FFF1FEE0FFF1FE00F74
:1011A000F11FE859FF4F84910E9437020F5F1F4FD4
:1011B000043011057CF363E088E70E940E0200E032
:1011C00010E00EC0FE01EE0FFF1FEE0FFF1FE00F3D
:1011D000F11FE859FF4F84910E9437020F5F1F4FA4
:1011E000043011057CF3DF91CF911F910F91FF9097
:1011F000EF90DF90CF90BF90AF9008950F931F9323
:10120000CF93DF938C01862F60E00E940E02C0E036
:10121000D0E00DC0F801EE0FFF1FEE0FFF1FEC0F27
:10122000FD1FE859FF4F84910E9437022196C43078
:10123000D10584F3DF91CF911F910F9108956F92A3
:101240007F928F929F92AF92BF92CF92DF92EF9256
:10125000FF920F931F93CF93DF9360910E017091D4
:101260000F0180911001909111010E949D10CB01FE
:1012700068EE73E00E9485114B0164E670E00E9405
:101280008511662E772EE62EF72E6AE070E00E941A
:101290008511A62EB72EC82ED92E062F172FC82F90
:1012A000D92F80910601909107018816990649F07F
:1012B00066E270E0C4010E94FE08909207018092ED
:1012C00006018091080190910901E816F90651F094
:1012D0006CE270E0862D972D0E94FE086092080156
:1012E0007092090180910A0190910B01081719076A
:1012F00051F062E370E08A2D9B2D0E94FE08A092BF
:101300000A01B0920B0180910C0190910D01C81758
:10131000D90751F068E370E08C2D9D2D0E94FE08E6
:10132000C0920C01D0920D01DF91CF911F910F91CE
:10133000FF90EF90DF90CF90BF90AF909F908F90F5
:101340007F906F900895809117018737C8F01092B1
:10135000170120E030E040E85FE360910E017091FA
:101360000F0180911001909111010E942C10609347
:101370000E0170930F0180931001909311011CC016
:10138000809116018737C0F01092160120E030E0FE
:1013900040E85FE360910E0170910F0180911001B0
:1013A000909111010E942C1060930E0170930F0117
:1013B00080931001909311010E941F09089580915C
:1013C00015018737C8F01092150120E030E040E8A1
:1013D0005FE360910E0170910F0180911001909177
:1013E00011010E942C1060930E0170930F018093E5
:1013F0001001909311011CC0809114018737C0F037
:101400001092140120E030E040E85FE360910E01AB
:1014100070910F0180911001909111010E942C1088
:1014200060930E0170930F0180931001909311014E
:101430000E941F0908958EE20E94FF0187E20E9428
:10144000FF0180E00E94FF0185E00E94FF0180E033
:101450000E94FF0187E00E94FF0180E00E94FF01DF
:101460008FEF0E94FF018FE20E94FF012FEF86E7BE
:1014700091E0215080409040E1F700C000008EE2F2
:101480000E94FF010E94A3090E94DF090E94ED0053
:101490000E94610708952F923F924F925F926F9240
:1014A0007F928F929F92AF92BF92CF92DF92EF92F4
:1014B000FF920F931F93CF93DF9366E085E00E9426
:1014C000E90381E0809313010E9434010E941B0A0A
:1014D0000E94030766E085E00E94210482E0809379
:1014E00013010E9434010E941B0A0E94030746E078
:1014F00065E084E00E946C0483E0809313010E9405
:1015000034010E941B0A0E94030746E065E084E064
:101510000E94D70484E0809313010E9434010E944A
:101520001B0A0E94030746E065E084E00E9446052E
:1015300085E0809313010E9434010E941B0A0E94DF
:10154000030746E065E084E00E94B605C6E0C0936C
:1015500013010E9434010E941B0A0E94030746E007
:1015600065E084E00E943406D7E0D09313010E9426
:1015700034010E941B0A0E94030746E065E084E0F4
:101580000E94B10618E0109313010E9434010E94DA
:101590001B0A0E94030765E084E00E94E90309E05A
:1015A000009313010E9434010E941B0A0E9403074A
:1015B00065E084E00E9421040F2EFAE0FF2EF02D5A
:1015C000F09213010E9434010E941B0A0E9403073B
:1015D00045E064E083E00E946C040F2EFBE0EF2EF8
:1015E000F02DE09213010E9434010E941B0A0E9418
:1015F000030745E064E083E00E94D7040F2EFCE07F
:10160000DF2EF02DD09213010E9434010E941B0A9C
:101610000E94030745E064E083E00E9446050F2E28
:10162000FDE0CF2EF02DC09213010E9434010E94E4
:101630001B0A0E94030745E064E083E00E94B605B0
:101640000F2EFEE0BF2EF02DB09213010E94340148
:101650000E941B0A0E94030745E064E083E00E94A9
:1016600034060F2EFFE0AF2EF02DA09213010E9442
:1016700034010E941B0A0E94030745E064E083E0F6
:101680000E94B1066894992494F8909213010E94E4
:1016900034010E941B0A0E94030764E083E00E9459
:1016A000E9030F2EF1E18F2EF02D809213010E949D
:1016B00034010E941B0A0E94030764E083E00E9439
:1016C00021040F2EF2E17F2EF02D709213010E9463
:1016D00034010E941B0A0E94030744E063E082E099
:1016E0000E946C040F2EF3E16F2EF02D6092130117
:1016F0000E9434010E941B0A0E94030744E063E039
:1017000082E00E94D7040F2EF4E15F2EF02D50925C
:1017100013010E9434010E941B0A0E94030744E047
:1017200063E082E00E9446050F2EF5E14F2EF02D7A
:10173000409213010E9434010E941B0A0E94030779
:1017400044E063E082E00E94B6050F2EF6E13F2EF2
:10175000F02D309213010E9434010E941B0A0E9456
:10176000030744E063E082E00E9434060F2EF7E1B5
:101770002F2EF02D209213010E9434010E941B0A8B
:101780000E94030744E063E082E00E94B10688E122
:10179000809313010E9434010E941B0A0E940307D8
:1017A00044E063E082E00E943406209213010E942C
:1017B00034010E941B0A0E94030744E063E082E0B8
:1017C0000E94B605309213010E9434010E941B0A48
:1017D0000E94030744E063E082E00E9446054092D5
:1017E00013010E9434010E941B0A0E94030744E077
:1017F00063E082E00E94D704509213010E943401FA
:101800000E941B0A0E94030744E063E082E00E94FA
:101810006C04609213010E9434010E941B0A0E9412
:10182000030782E00E94F00664E083E00E94210446
:10183000709213010E9434010E941B0A0E94030748
:1018400064E083E00E94E903809213010E94340166
:101850000E941B0A0E94030745E064E083E00E94A7
:10186000B106909213010E9434010E941B0A0E944B
:10187000030745E064E083E00E943406A092130170
:101880000E9434010E941B0A0E94030745E064E0A5
:1018900083E00E94B605B09213010E9434010E94B9
:1018A0001B0A0E94030745E064E083E00E944605AE
:1018B000C09213010E9434010E941B0A0E94030778
:1018C00045E064E083E00E94D704D09213010E94B7
:1018D00034010E941B0A0E94030745E064E083E094
:1018E0000E946C04E09213010E9434010E941B0AC2
:1018F0000E94030783E00E94F00665E084E00E94F6
:101900002104F09213010E9434010E941B0A0E94DC
:10191000030765E084E00E94E903009313010E943D
:1019200034010E941B0A0E94030746E065E084E040
:101930000E94B106109313010E9434010E941B0AF9
:101940000E94030746E065E084E00E943406D093DD
:1019500013010E9434010E941B0A0E94030746E003
:1019600065E084E00E94B605C09313010E94340133
:101970000E941B0A0E94030746E065E084E00E9483
:10198000460585E0809313010E9434010E941B0AE2
:101990000E94030746E065E084E00E94D70484E0EB
:1019A000809313010E9434010E941B0A0E940307C6
:1019B00046E065E084E00E946C0483E080931301BC
:1019C0000E9434010E941B0A0E94030784E00E94C7
:1019D000F00666E085E00E94210482E08093130116
:1019E0000E9434010E941B0A0E94030766E085E002
:1019F0000E94E90381E0809313010E9434010E9458
:101A00001B0A0E9403070E948F0710921301DF91A7
:101A1000CF911F910F91FF90EF90DF90CF90BF90EB
:101A2000AF909F908F907F906F905F904F903F907E
:101A30002F9008950E9403070E948F070E941B0A9F
:101A400080E00E948801EC01CC3281E0D80738F4B4
:101A50000E94A0010E94A8010E944B0A1BC0CB3823
:101A600082E0D807A8F00E94C8030CC00E948A0335
:101A700080E00E948801EC010E9403070E941B0A7B
:101A80000E943401CB38D24088F70E94B60702C0CA
:101A90000E94A4010E943401CDCFCF93DF9360E078
:101AA00080E00E940E02C0E0D0E007C0FE01E057D7
:101AB000FF4F84910E9437022196C530D105B4F3BF
:101AC00060E087E00E940E02C0E0D0E007C0FE01A7
:101AD000EB56FF4F84910E9437022196C530D10505
:101AE000B4F360E08EE00E940E02C0E0D0E007C0D8
:101AF000FE01E656FF4F84910E9437022196C530C1
:101B0000D105B4F360E085E10E940E02C0E0D0E0B0
:101B100007C0FE01E156FF4F84910E9437022196D3
:101B2000C530D105B4F360E08CE10E940E02C0E044
:101B3000D0E007C0FE01EC55FF4F84910E943702B0
:101B40002196C530D105B4F360E083E20E940E0215
:101B500084E20E943702DF91CF9108950F931F9383
:101B6000CF93DF93D82FC62F60E00E940E0200E0D3
:101B700010E016C08C2F90E0880F991FFC01EE0F2B
:101B8000FF1FEE0FFF1FEE0FFF1FE81BF90BE00F0B
:101B9000F11FE755FF4F84910E9437020F5F1F4FDF
:101BA000073011053CF361E08D2F0E940E0207E023
:101BB00010E016C08C2F90E0880F991FFC01EE0FEB
:101BC000FF1FEE0FFF1FEE0FFF1FE81BF90BE00FCB
:101BD000F11FE755FF4F84910E9437020F5F1F4F9F
:101BE0000E3011053CF3DF91CF911F910F910895B5
:101BF00060E080E00E94AE0D61E087E00E94AE0DE3
:101C000062E08EE00E94AE0D63E085E10E94AE0DC1
:101C100062E08FE10E94AE0D64E086E20E94AE0DAC
:101C200066E08EE20E94AE0D67E086E30E94AE0D94
:101C300068E08DE30E94AE0D64E087E40E94AE0D83
:101C400065E08FE40E94AE0D62E089E50E94AE0D72
:101C500064E080E60E94AE0D69E088E60E94AE0D69
:101C60006AE08FE60E94AE0D64E086E70E94AE0D4A
:101C7000089560E080E00E94AE0D61E087E00E9480
:101C8000AE0D62E08EE00E94AE0D63E085E10E9441
:101C9000AE0D62E08EE10E94AE0D6BE085E20E9427
:101CA000AE0D6CE08CE20E94AE0D62E083E30E9418
:101CB000AE0D65E08AE30E94AE0D6AE081E40E9409
:101CC000AE0D64E08AE40E94AE0D65E082E50E94FC
:101CD000AE0D6AE08CE50E94AE0D6BE083E60E94DB
:101CE000AE0D62E08AE60E94AE0D6BE081E70E94D5
:101CF000AE0D64E088E70E94AE0D0895CF93DF93A8
:101D000060E080E00E940E02C0E0D0E004C080E00D
:101D10000E9437022196C038D105CCF361E080E003
:101D20000E940E02C0E0D0E004C080E00E943702B2
:101D30002196C038D105CCF3DF91CF91089522C010
:101D40004E9920C00E947E0E4E9BFECF0E944D0DEC
:101D500066E270E080E090E00E94FE086CE270E0D5
:101D600080E090E00E94FE0862E370E080E090E096
:101D70000E94FE0868E370E080E090E00E94FE08A8
:101D800010920401809104018111DACF08958EE24E
:101D90000E94FF010E947E0E0E94390E8091120166
:101DA000811114C00E9412080E94B1012FEF87EA2E
:101DB00091E6215080409040E1F700C000000E9471
:101DC000B501809112018F5F809312010895FF92F7
:101DD0000F931F93CF93DF9300911401109115017E
:101DE000602F812F0E94E900F82ED0911601C0913A
:101DF00017016D2F8C2F0E94E9006F2D0E94E900C2
:101E0000882309F466C0C81316C0C23641F4809115
:101E100013018A508F3018F00E94C70E5AC0C33683
:101E200008F457C0809113018B508E3008F451C0D4
:101E30000E94C70E4EC0D81315C0D23641F480910F
:101E400013018A508F3018F00E94C70E42C0D3365B
:101E500008F43FC0809113018B508E30D0F10E9466
:101E6000C70E37C018131AC01C3559F480911301DE
:101E700096EF980F9F3028F08B3118F40E94C70E10
:101E800028C01D3530F18091130195EF980F9E30D9
:101E900000F18C31F1F00E94C70E1BC0081319C06D
:101EA0000C3559F48091130196EF980F9F3028F06C
:101EB0008B3118F40E94C70E0CC00D3550F0809184
:101EC000130195EF980F9E3020F08C3111F00E9495
:101ED000C70EDF91CF911F910F91FF9008951F9230
:101EE0000F920FB60F9211242F933F934F935F934E
:101EF0006F937F938F939F93AF93BF93EF93FF93D2
:101F00000E94E70EFF91EF91BF91AF919F918F914A
:101F10007F916F915F914F913F912F910F900FBEE5
:101F20000F901F9018950F931F93CF93DF9360E04E
:101F300080E00E940E0200E010E00CC080E00E94F1
:101F40003702219602C0C0E0D0E0C038D105B4F31A
:101F50000F5F1F4F08301105B4F3DF91CF911F9130
:101F60000F9108952FEF81EE94E021508040904032
:101F7000E1F700C000008EEA0E94FF0160E885EDF5
:101F80000E9422026FE388EA0E94220260E083ED51
:101F90000E94220280E40E94FF0181EA0E94FF0168
:101FA00088EC0E94FF0162E18AED0E94220266E64F
:101FB00081E80E94220261EF89ED0E94220260E323
:101FC00088ED0E94220284EA0E94FF0186EA0E94B4
:101FD000FF0164E18DE80E9422028FEA0E94FF0166
:101FE0002FEF81EE94E0215080409040E1F700C057
:101FF000000060E180E20E9422020E94930F2FEF16
:1020000083ED90E3215080409040E1F700C0000054
:10201000089584E087B988B1846088B90E94B901C5
:1020200080E98AB90E9476010E94B20F0E942A01BB
:10203000E9E6F0E080818C6080838DB382608DBBA7
:1020400078940E94F80D0E94EA070E948F070E9470
:102050009F0E0E941A0D5058BB27AA270E944310BA
:102060000C944B110E943D1138F00E94441120F055
:1020700039F49F3F19F426F40C943A110EF4E095CC
:10208000E7FB0C943411E92F0E945C1158F3BA1746
:10209000620773078407950720F079F4A6F50C947E
:1020A0007E110EF4E0950B2EBA2FA02D0B01B90175
:1020B00090010C01CA01A0011124FF27591B99F0BE
:1020C000593F50F4503E68F11A16F040A22F232FCA
:1020D000342F4427585FF3CF469537952795A7951A
:1020E000F0405395C9F77EF41F16BA0B620B730BC1
:1020F000840BBAF09150A1F0FF0FBB1F661F771F32
:10210000881FC2F70EC0BA0F621F731F841F48F4E6
:10211000879577956795B795F7959E3F08F0B0CF6F
:102120009395880F08F09927EE0F97958795089556
:102130000E94101108F481E008950E94A410689490
:10214000B1110C947F1108950E94641188F09F577B
:1021500098F0B92F9927B751B0F0E1F0660F771FCB
:10216000881F991F1AF0BA95C9F714C0B13091F0C1
:102170000E947E11B1E008950C947E11672F782F94
:102180008827B85F39F0B93FCCF386957795679586
:10219000B395D9F73EF490958095709561957F4FF2
:1021A0008F4F9F4F0895E89409C097FB3EF4909598
:1021B0008095709561957F4F8F4F9F4F9923A9F020
:1021C000F92F96E9BB279395F695879577956795AF
:1021D000B795F111F8CFFAF4BB0F11F460FF1BC0F3
:1021E0006F5F7F4F8F4F9F4F16C0882311F096E986
:1021F00011C0772321F09EE8872F762F05C0662334
:1022000071F096E8862F70E060E02AF09A95660FEC
:10221000771F881FDAF7880F9695879597F90895A5
:10222000990F0008550FAA0BE0E8FEEF16161706E7
:10223000E807F907C0F012161306E407F50798F04F
:10224000621B730B840B950B39F40A2661F0232B68
:10225000242B252B21F408950A2609F4A140A695E4
:102260008FEF811D811D089597F99F6780E870E0C9
:1022700060E008959FEF80EC089500240A941616FC
:10228000170618060906089500240A941216130664
:10229000140605060895092E0394000C11F48823F2
:1022A00052F0BB0F40F4BF2B11F460FF04C06F5F0E
:1022B0007F4F8F4F9F4F089557FD9058440F551FE4
:1022C00059F05F3F71F04795880F97FB991F61F0B8
:1022D0009F3F79F087950895121613061406551F2F
:1022E000F2CF4695F1DF08C0161617061806991F9B
:1022F000F1CF86957105610508940895E894BB2790
:1023000066277727CB0197F9089597FB072E16F4D8
:10231000009407D077FD09D00E94991107FC05D0E1
:102320003EF4909581959F4F0895709561957F4FEC
:102330000895AA1BBB1B51E107C0AA1FBB1FA6170C
:10234000B70710F0A61BB70B881F991F5A95A9F75E
:1023500080959095BC01CD0108958F929F92AF9288
:10236000BF92CF92DF92EF92FF92CF93DF93EC0177
:10237000688179818A819B8161157105810591054B
:1023800021F464E279ED8BE597E02DE133EF41E054
:1023900050E00E94091249015A019B01AC01A7EAD1
:1023A000B1E40E9428126B017C01ACEEB4EFA501F0
:1023B00094010E943612DC01CB018C0D9D1DAE1DD7
:1023C000BF1DB7FF03C00197A109B0488883998357
:1023D000AA83BB839F77DF91CF91FF90EF90DF902F
:1023E000CF90BF90AF909F908F9008950E94AD11B5
:1023F000089580E091E00E94AD110895A0E0B0E062
:102400008093000190930101A0930201B093030116
:102410000895052E97FB1EF400940E94201257FD8C
:1024200007D00E943B1207FC03D04EF40C942012FC
:1024300050954095309521953F4F4F4F5F4F0895F0
:1024400090958095709561957F4F8F4F9F4F089520
:102450000E945D12A59F900DB49F900DA49F800DCA
:10246000911D11240895B7FF0C9428120E94281280
:10247000821B930B0895A1E21A2EAA1BBB1BFD0120
:102480000DC0AA1FBB1FEE1FFF1FA217B307E40753
:10249000F50720F0A21BB30BE40BF50B661F771FAB
:1024A000881F991F1A9469F760957095809590958B
:1024B0009B01AC01BD01CF010895A29FB001B39F64
:1024C000C001A39F700D811D1124911DB29F700D3D
:0C24D000811D1124911D0895F894FFCF88
:0624DC00010000000100F8
:00000001FF
